:020000040800F2
:10000000400600209D010008CD0B0008F109000802
:10001000C90B0008790900086515000800000000F8
:100020000000000000000000000000004D0E00086D
:100030007D09000800000000CF0B00083D0F0008FC
:1000400081160008B7010008B7010008B7010008D1
:10005000B7010008B701000881090008B7010008CE
:10006000B7010008B7010008B7010008B701000890
:10007000B7010008B7010008B7010008B701000880
:10008000B7010008B70100085D080008B7010008C3
:10009000B7010008B7010008B70100089D09000872
:1000A000B7010008B7010008B7010008B701000850
:1000B000B7010008B7010008BD0F0008B70100082C
:1000C000B7010008B7010008B7010008B701000830
:1000D000B7010008ED120008B7010008B7010008D9
:1000E000B7010008B7010008B7010008B701000810
:1000F000B7010008B7010008B7010008B701000800
:10010000B7010008B7010008A9100008B7010008EE
:10011000B7010008B7010008B701000895110008F1
:10012000B7010008B7010008B7010008B7010008CF
:10013000B7010008B7010008B7010008B7010008BF
:10014000B7010008B7010008B7010008B7010008AF
:10015000B7010008B7010008B7010008B70100089F
:10016000B7010008B7010008B7010008B70100088F
:10017000B7010008B7010008B7010008B70100087F
:10018000B7010008B7010008DFF80CD000F0F8FA5A
:1001900000480047792000084006002006488047B4
:1001A00006480047FEE7FEE7FEE7FEE7FEE7FEE75C
:1001B000FEE7FEE7FEE7FEE7550F000889010008AD
:1001C00040EA01039B0703D009E008C9121F08C0D9
:1001D000042AFAD203E011F8013B00F8013B521E59
:1001E000F9D27047D2B201E000F8012B491EFBD2D0
:1001F00070470022F6E710B513460A460446194632
:10020000FFF7F0FF204610BD2DE9F04D81EA030411
:1002100004F0004B21F0004514464FF0000A23F093
:10022000004150EA050220D054EA01021DD0C5F376
:100230000A570246C5F31303C1F31300C1F30A566C
:1002400040F4801543F48013A7EB0608101BD64634
:1002500008F2FD3873EB050002D308F1010801E054
:1002600092185B41B8F1000F03DA00200146BDE8A7
:10027000F08D00204FF48011064684460EE0171BD7
:1002800073EB050705D3121B63EB050306434CEA2A
:10029000010C49084FEA300092185B4150EA01070F
:1002A000EDD152EA030012D082EA040083EA05018C
:1002B000084305D0101BAB4106D20122002306E003
:1002C00000224FF0004302E06FF0010253101AEBDE
:1002D00006004CEB085110EB0A0041EB0B01BDE8A6
:1002E000F04D00F0A7B80EB540F233410291002165
:1002F000CDE900110A460B4600F0ABF803B000BD93
:1003000001F0004330B421F0004150EA010206D070
:100310000A0DA2F56072C1F31301002A02DC30BCA1
:1003200000207047440F44EAC104C100E01830BC0B
:1003300000EBC25000F047B830B50B460146002034
:100340002022012409E021FA02F59D4205D303FA97
:1003500002F5491B04FA02F52844151EA2F1010218
:10036000F1DC30BD2DE9F05F0546002092469B464A
:1003700088460646814640241BE0284641464746BB
:10038000224600F01EFA53465A46C01A914110D335
:1003900011461846224600F005FA2D1A67EB0108AF
:1003A0004F4622460120002100F0FCF917EB00091E
:1003B0004E41201EA4F10104DFDC484631462A46A6
:1003C0004346BDE8F09F0029A8BF7047401C490084
:1003D00008BF20F00100704710B4B0FA80FC00FAAA
:1003E0000CF050EA010404BF10BC704749B1CCF1D5
:1003F000200421FA04F411FA0CF118BF0121214361
:100400000843A3EB0C01CB1D4FEA00614FEA10201B
:1004100042BF002010BC704700EBC35010440029BD
:10042000A4BF10BC7047401C490008BF20F0010069
:1004300010BC704710B5141E73F1000408DA401C9C
:1004400041F1000192185B411A4301D120F00100F3
:1004500010BD2DE9F04D92469B4611B1B1FA81F2E3
:1004600002E0B0FA80F22032904600F09BF9044698
:100470000F4640EA0A0041EA0B0153465A46084338
:1004800013D0114653EA010019D0C8F1400250467A
:1004900000F097F905460E4650465946424600F090
:1004A00081F9084305D0012004E020463946BDE823
:1004B000F08D0020054346EAE0762C4337430A9846
:1004C0006305E40AA0EB08000022FD0A44EA475451
:1004D0000A3002D500200146E9E7010510196941FB
:1004E000DDE9084500196941BDE8F04DA2E72DE9B5
:1004F000FE4F804681EA0300C00F0C46009021F0B9
:10050000004123F00045B8EB0200A94105D2404666
:10051000214690461C460B46024623F000401043FD
:1005200047D0270DC7F30A00C3F30A510290401ABF
:10053000019040286BDAC3F3130040F4801B00984D
:10054000924620B10023D2EB030A63EB0B0B019818
:100550005946C0F14002504600F024F906460D46C7
:1005600050465946019A00F03CF910EB08006141F1
:10057000002487EA115284EAE7731A4340D0009AB4
:1005800062B3019A012A4FEA075215DC001B61EBA6
:1005900002014FF0004202EA0752CDE90042001C7E
:1005A00041F5801132462B46FFF753FF03B0BDE8FB
:1005B000F08F40462146F9E7001B61EB0201001C69
:1005C00041F5801300185B412018A2F5001747EB96
:1005D000030140EAD570B6196D4111E06D084FEA8C
:1005E000360645EAC0754FEA0752001B61EB02016F
:1005F000001C41F5801149084FEA300000195141B3
:1006000032462B4603B0BDE8F04FFFF713BF00980A
:10061000012240000023D0EB020263EBE07300985C
:1006200021464FEAE074B8EB000061EB0401E9E712
:1006300083F000435BE781F0004158E72DE9FE4F6E
:1006400081EA030404F0004421F0004100944FF0DB
:10065000000B23F0004350EA01045ED052EA030489
:100660005BD0C3F30A54C1F30A552C44A4F2F3340B
:100670000194A0FB0254C1F3130141F48011C3F3B0
:10068000130343F4801301FB024400FB034E840A6E
:10069000970A44EA815447EA8357A4FB0768029506
:1006A0008D0A05FB07854FEA932C04FB0C542705A4
:1006B000029D4FEA065847EA1637B5EB08056EEB80
:1006C000070C870E920E47EA811742EA8312A7FBB6
:1006D0000201B6EB0B0164EB00042B0D43EA0C3373
:1006E0005E1844EB1C50DA465146E7FB0201C5F3A5
:1006F00013044FEA0B3343EA14534FEA0432019CCC
:1007000043EA0603A4F10C040294009CCDE900B472
:10071000FFF79FFE03B0BDE8F08F00200146F9E728
:10072000C1F30A52C1F3130140F2FF3341F48011C7
:100730009A4202DA00200146704740F233439A425F
:10074000A2F2334202DC524200F03BB800F02AB879
:1007500030B5041E71F1000404DB4FF00044404248
:1007600064EB0101141E73F1000405DB1C464FF01D
:100770000043524263EB0403994208BF904230BDEC
:10078000064C074D06E0E06840F0010394E80700DE
:1007900098471034AC42F6D3FFF7FAFC98210008D2
:1007A000B8210008202A04DB203A00FA02F10020D8
:1007B00070479140C2F1200320FA03F3194390409F
:1007C0007047202A04DB203A21FA02F0002170470A
:1007D00021FA02F3D040C2F12002914008431946A9
:1007E0007047202A06DBCB17203A41FA02F043EA91
:1007F000E07306E041FA02F3D040C2F120029140DA
:1008000008431946704770B58C1810F8015B15F055
:10081000070301D110F8013B2A1106D110F8012B72
:1008200003E010F8016B01F8016B5B1EF9D12B0797
:1008300005D40023521E0DD401F8013BFAE710F84D
:10084000013BCB1A921C03E013F8015B01F8015B3A
:10085000521EF9D5A142D8D3002070BD2B480068A4
:1008600000F0020030B32A48007818BB00BF2748C8
:10087000006800F002000028F9D02448C06C254927
:1008800008800846008840F6FF71081A00EE100A3A
:10089000B8EEC00ADFED200A80EE201A9FED1F0A95
:1008A00021EE000A1E4880ED000A01201849087058
:1008B0001C4908701548006800F0020020B3144875
:1008C000007808B300BF1148006800F0020000285B
:1008D000F9D00E48C06C144908800846008800EE24
:1008E000100AB8EE400ADFED0C0A80EE201A9FEDE8
:1008F0000B0A21EE000A0A4880ED010A0020044993
:10090000087001200949087070470000002001406C
:100910000C0100200E01002000F07F450000C842BD
:10092000340200200A010020100100200B010020E9
:1009300010B500F05FF810BD0D48006840F01000E1
:100940000B4908600B48006820F003000949086063
:100950000846006840F0010008600846406820F042
:10096000010048600846806820F0030088607047F6
:10097000303802400010024000BFFEE77047000020
:100980000548006800F0010028B10348006840F005
:100990000100014908607047143C014007480068A5
:1009A00000F0400040B10548006840F040000349B5
:1009B000086001200249087070470000143C0140A3
:1009C000080100200848006840F00100064908605E
:1009D0000648006820F44070044908600846C06872
:1009E00020F44070C8607047303802400000024078
:1009F00000BFFEE71548006840F002001349086098
:100A00001348006820F470401149086008460068E7
:100A100040F4A0400860081D006840F0C000091DB7
:100A20000860081D006820F47040091D086008482F
:100A30001430006840F08000054914310860084611
:100A4000006840F040000860704700003038024005
:100A5000000402400E48006900F0010008B10120C6
:100A600070470C48006900F0040008B90220F7E75D
:100A70000848006900F0080008B90320F0E70548BD
:100A8000006900F0100008B90420E9E70020E7E75A
:100A900000000240001002401048006840F00100D1
:100AA0000E4908600846006840F0100008600C48D5
:100AB000006820F003000A4908600846C06820F07A
:100AC0000300C8600748006820F47C70054908608E
:100AD0000846C06820F47C70C86070473038024017
:100AE00000000240001002400548007830B10020AC
:100AF000034908780021024A117070470020FCE782
:100B0000E400002000B50F480068401C0D49086053
:100B100008460068142813D3002008600A480078AB
:100B20000A490870FFF796FF0749087008460078E1
:100B300030B90648007818B10448007804490870B4
:100B400000BD0000E8000020EC000020ED000020C7
:100B5000E40000201A48006840F0040018490860CA
:100B60001848006820F47F4016490860084600686D
:100B700040F4AA400860081D006820F0F000091D3C
:100B80000860081D006820F47F40091D08600D48BA
:100B90001430006840F010000A491431086008461B
:100BA000006840F0200008600846006840F04000FF
:100BB00008600846006840F0800008607047000048
:100BC000303802400008024000BFFEE7704770471F
:100BD00010B5094890F8020101280CD1064907A078
:100BE00000F09EFD0020044981F802014FF480715D
:100BF0000148FFF7FEFA10BD3001002025730D0AF1
:100C00000000000010B500240F48006840F04000CC
:100C10000D4908600D48006840F004000B49086069
:100C200008E0601CC4B2642001F0F3F9642C01DD1B
:100C3000012010BD0548001D006800F001000028DB
:100C4000EFD00020F5E700003438024000080650DD
:100C50002DE9F04104460D460026002709E0781CE6
:100C6000C7B2642001F0D5F9642F02DD0120BDE890
:100C7000F0810948006800F001000028EFD0064824
:100C8000001D0668281B401CB6FBF0F100FB11603C
:100C900006193046EBE700000408065010B50024A2
:100CA0000A48006820F4804008490860052000F0E8
:100CB000B5F8FF2000F0B2F804460448006840F49C
:100CC000804002490860204610BD00001404024024
:100CD0004F48006840F480504D4908604D48006816
:100CE00020F440604B4908600846006840F400600A
:100CF00008600846406820F0200048600846806888
:100D000040F4406088600846006A20F47000086281
:100D10000846006A40F4A00008620846006820F413
:100D2000405008600846006840F4005008600846DB
:100D3000C06820F44050C8600846006A20F0706027
:100D400008620846006A40F0A06008620846006831
:100D500020F4404008600846006840F40040086005
:100D60000846406820F0800048600846806840F4EB
:100D7000404088600846006A20F0704008620846DB
:100D8000006A40F0A04008622348008820F4004038
:100D9000214908800846008820F400600880084641
:100DA000008820F4806008800846008840F40070C5
:100DB00008800846008840F4807008800846008853
:100DC00020F0800008800846008820F03800088065
:100DD0000846008840F0040008800846008840F07B
:100DE000020008800846008840F00100088008469C
:100DF000808820F0100088800846808B20F40060F6
:100E000088830846008840F0400008807047000052
:100E100044380240000002400030014001460020FA
:100E200000BF094A128902F00202002AF9D0064ADC
:100E3000918100BF044A128902F00102002AF9D010
:100E4000014A9289D0B270470030014070470000DB
:100E50000CB50020019000903448006840F48030C8
:100E60003249086000BF3148006800F4003000904B
:100E70000198401C0190009818B90198B0F5A04F56
:100E8000F1D12A48006800F4003010B10120009030
:100E900001E0002000900098012846D1234840300E
:100EA000006840F0805021494031086020480068C7
:100EB00040F440401E4908601C48083000681B4947
:100EC000083108600846006840F4004008600846A1
:100ED000006840F4A05008601648091F0860081F09
:100EE000006840F08070091F086000BF0F4800686C
:100EF00000F000700028F9D040F205700E4908603B
:100F00000A480830006820F00300084908310860EA
:100F10000846006840F00200086000BF034808303F
:100F2000006800F00C000828F8D10CBD0038024021
:100F30000070004019544007003C02404FF0E02090
:100F4000006900F4803018B100204FF0E021886182
:100F50007047000010B51548006840F47000134950
:100F600008601348006840F0010011490860002043
:100F70000F49083108600E4800680E4908400C49C6
:100F800008600D48091D0860081F006820F48020D3
:100F9000091F0860002006490C310860FFF758FF60
:100FA0004FF0006001498039086010BD88ED00E015
:100FB00000380240FFFFF6FE10300024324800885F
:100FC00000F0010050B13048008820F001002E49A7
:100FD00008802E480068401C2C4908602A48008878
:100FE00000F0080000284ED02748008820F00800B4
:100FF0002549088024481030008800F4007080B92A
:1010000021481030008840F400701F4910310880DA
:101010001D482C3000681E49086000201B490860EC
:1010200031E019481030008800F4007058B31648B9
:101030001030008820F400701349103108801248E5
:101040002C30006813490860084600680F49096899
:101050004FF4803202FB01000D490968401A0E4925
:101060000860084690ED000AB8EE400ADFED0B0A72
:1010700080EE201A0A4880ED001A01200949087004
:101080000020024908607047100800401C01002041
:1010900020010020240100202801002000006842D7
:1010A00014010020180100203248008800F00100DF
:1010B00050B13048008820F001002E4908802E48A9
:1010C0000068401C2C4908602A48008800F0020093
:1010D00000284ED02748008820F0020025490880CB
:1010E00024481030008800F0020080B921481030F8
:1010F000008840F002001F49103108801D4824304C
:1011000000681E49086000201B49086031E019484A
:101110001030008800F0020058B3164810300088E4
:1011200020F0020013491031088012482430006872
:1011300013490860084600680F4909684FF4803277
:1011400002FB01000D490968401A0E490860084673
:1011500090ED000AB8EE400ADFED0B0A80EE201A8F
:101160000A4880ED001A0020034908600120084960
:1011700008707047100C0040F8000020FC000020B0
:10118000000100200401002000007A44F400002047
:10119000F000002010B50748008800F0010038B1C9
:1011A0000448008820F0010002490880FFF7AAFCEB
:1011B00010BD0000101400402DE9F04304464748DC
:1011C000006840F02000454908604548008840F02C
:1011D0008000434908800846008820F00800088005
:1011E0000846008840F0040008800846008820F087
:1011F000020008803A480C30008840F0010038496D
:101200000C31088042F2CF0035492831088004EBC8
:1012100084004000401E091D0860314814300088D9
:1012200040F001002E4914310880081F008820F08A
:101230000100091F088037200522012502261346D8
:10124000C3F10708B8F1040F02D94FF0040801E018
:10125000C3F10708C44603F10408B8F1070F02D22E
:101260004FF0000801E0A3F1030847464FF00108E2
:1012700008FA0CF8A8F1010808EA050808FA07F8C6
:101280004FF0010909FA07F9A9F1010909EA06096C
:1012900048EA090100BF002807DA0A07150E114ABB
:1012A00000F00F031B1FD55403E00A07130E0E4A6C
:1012B000135400BF372000F01F0201219140420962
:1012C000920002F1E022C2F8001100BF0448008839
:1012D00040F0010002490880BDE8F0834038024038
:1012E0000014004018ED00E000E400E00020184980
:1012F000098801F0200191B11649B1F80011FF29C8
:101300000DDA13498988134AB2F80021114B995418
:101310001946B1F80011491C1A46A2F800110C49EF
:10132000098801F0100191B109490988C8B208493A
:101330008988C8B20021074AB2F80021054B9954A8
:1013400001211A4682F802110021A2F8001170470B
:1013500000100140300100202DE9F0412E48808925
:1013600040F020002C4988810846808940F0100018
:10137000888125200522012402251346C3F1070C8C
:10138000BCF1040F02D94FF0040C01E0C3F1070CCB
:10139000674603F1040CBCF1070F02D24FF0000CBA
:1013A00001E0A3F1030C66464FF0010C0CFA07FCB8
:1013B000ACF1010C0CEA040C0CFA06FC4FF001082D
:1013C00008FA06F8A8F1010808EA05084CEA08013D
:1013D00000BF002807DA0A07140E104A00F00F03B6
:1013E0001B1FD45403E00A07130E0D4A135400BF09
:1013F000252000F01F02012191404209920002F1D4
:10140000E022C2F8001100BF0348808940F4005078
:1014100001498881BDE8F0810010014018ED00E02D
:1014200000E400E070B52DED068B05469FED410A06
:10143000B0EE408A002400263F48006840F00100DA
:101440003D4908603C481430006840F010003A49BB
:10145000143108603948006820F47010374908607A
:101460000846006840F4201008600846406820F4F0
:10147000C06048600846806820F4701088600846A4
:10148000806840F4701088600846406A20F47F61EC
:101490002A484162406A40F4EE61284841622801CE
:1014A000FEF721FF41EC1A0B53EC1A2B9FED240B96
:1014B00051EC100BFEF7A8FE41EC190BFEF720FFD4
:1014C00008EE100ABCEEC80A10EE104A00EE104AF0
:1014D000B8EE400A38EE400AF3EE000A20EE200A89
:1014E000BCEEC00A10EE106A1748808920F4004054
:1014F0001549888146EA041008810846808920F44D
:10150000805088810846808920F480608881084660
:10151000808940F0080088810846808940F00400F6
:1015200088810846008A20F440500882BDEC068B72
:1015300070BD000000000000303802400000024092
:1015400000000000F40694410010014000BF04496F
:10155000098801F080010029F9D00149888070478D
:101560000010014000BFFEE710B51948006840F0C8
:101570000200174908601748006820F040501549DC
:1015800008600846006840F080500860081D006848
:1015900020F48040091D08600E480C30006820F0DF
:1015A00040500C490C310860081F006840F0405062
:1015B000091F0860FFF78CFB06481430006840F4F0
:1015C0008040044914310860002000F089F810BD03
:1015D000303802400004024070B504460E461546FD
:1015E0001248006820F48040104908600320FFF78B
:1015F00015FCC4F30740FFF711FCC4F30720FFF705
:101600000DFCE0B2FFF70AFC04E0FF20FFF706FC48
:1016100028706D1C301EA6F10106F6D10348006843
:1016200040F480400149086070BD0000140402408D
:1016300010B5044600F040F81048006820F48040DF
:101640000E4908602020FFF7E9FBC4F30740FFF7CD
:10165000E5FBC4F30720FFF7E1FBE0B2FFF7DEFB99
:101660000648006840F480400449086000BFFFF766
:1016700015FB00F001000028F9D110BD1404024050
:101680000B48006800F0010080B109480838006884
:1016900040F07F000649083908600548006820F0DE
:1016A00001000349086001200249087070470000EA
:1016B000082C00400901002010B50848006820F4FB
:1016C0008040064908600620FFF7A8FB0348006831
:1016D00040F480400149086010BD0000140402403D
:1016E00010B50446FFF7E8FF0C48006820F480407E
:1016F0000A4908600120FFF791FB2046FFF78EFBA7
:101700000648006840F480400449086000BFFFF7C5
:10171000C5FA00F001000028F9D110BD1404024000
:101720000FB4054B10B503A9044A029800F0DAF88B
:1017300010BC5DF814FB0000692000082C0100209B
:1017400002E008C8121F08C1002AFAD1704770478A
:10175000002001E001C1121F002AFBD170470000E8
:101760002DE9FF5F82B00021DDE90430020DDDF8D4
:1017700040B0034318D044F61050A2F2FF32424367
:101780001514119801281FD0A5EB0B00401C5FEA2F
:10179000000A4FF000064E4FDFF83891B046504631
:1017A00015D5CAF1000413E0119801244AA30128B9
:1017B00001D16FEA0B010298119AC0E90031C0E92A
:1017C000024206B0BDE8F09FCBF10000DFE704461F
:1017D0000021404A491842EB0450CDE9001012E0C4
:1017E000E00707D032463B4640464946FEF726FF13
:1017F0008046894632463B4610461946FEF71EFF94
:1018000006460F466410002CEAD1DDE90401DDE94B
:101810000023BAF1000F06DAFEF710FF42464B46EE
:10182000FEF70CFF05E0FEF7EFFC42464B46FEF7E5
:10183000EBFC04460E460022284BFEF789FF03D836
:101840004FF0FF30014607E00022254B204631468D
:10185000FEF74DFEFEF764FF102409E0002C0ADBC2
:101860000A220023FEF77EFD039B30321A55641EC8
:1018700050EA0102F2D1641C039AC4F1110314442A
:10188000119A012A03D0012208430DD10AE008432E
:1018900004D000204FF0110B119072E7A3EB0B0561
:1018A0006D1E0DE05B4504DD4FF0000205F1010502
:1018B00004E003DA4FF00002A5F10105002AECD0A4
:1018C00002981199C0E90231C0E9004579E70000AA
:1018D000000014400000F03F300000000000F04322
:1018E0000000E03F2DE9FF4F95B09B468946064634
:1018F00000250FE2252877D100242746F84A012148
:10190000059400E0044316F8013F203B01FA03F080
:101910001042F7D130782A2811D06FF02F03307899
:10192000A0F13002092A16D8059A44F0020402EB0D
:10193000820203EB42021044761C0590EFE759F84F
:10194000042B0592002A03DA504244F40054059017
:1019500044F00204761C30782E2816D116F8010FB8
:1019600044F004042A280DD06FF02F023078A0F143
:101970003003092B09D807EB870302EB4303C71891
:10198000761CF3E759F8047B761C30786C280FD06E
:1019900006DC4C2817D068280DD06A2814D104E042
:1019A000742810D07A280FD10DE044F400140AE016
:1019B00044F4801401E044F440147278824202D16D
:1019C00004F58014761C761C307866280BD013DC66
:1019D000582877D009DC002875D04528F6D046284D
:1019E000F4D047281AD19DE118E0632835D0642847
:1019F00079D0652812D195E1702873D008DC67286A
:101A0000F1D069286FD06E280DD06F2806D1B5E0CF
:101A100073282CD0752875D0782874D05A46179919
:101A200090476D1C75E1C4F30250022809D00328C9
:101A30000DD0D9F8001004280DD00D6009F104096B
:101A400067E1D9F80010EA17C1E90052F6E7D9F8C2
:101A500000100D80F2E70D70F0E719F8041B8DF807
:101A6000001000208DF80100EA46012003E059F83B
:101A700004AB4FF0FF3061074FF0000102D40DE0DE
:101A800008F101018846B9420FDA8045F8DB1AF8FF
:101A900008100029F4D108E008F1010188468142CC
:101AA000FADB1AF808100029F6D105985B46A0EB7E
:101AB000080721463846179A00F094FA284400EBAC
:101AC000080507E04DE029E10DE01AF8010B5A4640
:101AD00017999047B8F10108F7D25B46214638467E
:101AE000179A13E142E00A220092C4F302524FF027
:101AF000000A022A08D059F804CB032A4FEAEC71F5
:101B00000AD00DE029E02AE009F1070121F00702DF
:101B1000F2E802C1914609E00FFA8CFC4FEAEC7141
:101B2000042A03D14FFA8CFC4FEAEC71002907DA42
:101B30000A460021DCF1000C61EB02012D2202E0DB
:101B4000220504D52B228DF80420012203E0E207B0
:101B500001D02022F7E7904659E00A2102E0102246
:101B60000DE010214FF0000A00910BE010224FF021
:101B7000000A44F004040827009203E008224FF012
:101B8000000A0092C4F30252022A05D059F804CB8D
:101B90000021032A08D009E009F1070121F007021A
:101BA000F2E802C1914605E01FFA8CFC042A01D13B
:101BB0000CF0FF0C4FF00008220728D5702806D043
:101BC000009B83F0100353EA0A0305D00EE0402285
:101BD0008DF80420012208E05CEA010206D03022E0
:101BE0008DF804208DF8050002229046009B83F0BA
:101BF000080353EA0A030AD15CEA010201D1620731
:101C000005D530228DF804204FF001087F1E58289A
:101C100004D034A003900EA802900DE036A0F9E79E
:101C200053466046009AFEF79DFB84460398825C0B
:101C30000298401E029002705CEA0100F0D1029806
:101C400006A9081A00F1200A600702D524F480349E
:101C500000E00127574502DDA7EB0A0000E0002065
:101C600000EB0A01009005984144401A0590E003FA
:101C700006D45B462146179A059800F0B3F905444F
:101C8000002706E001A85A46C05D179990476D1CD1
:101C90007F1C4745F6DBE0030CD55B462146179ACF
:101CA000059800F09FF9054404E030205A46179942
:101CB00090476D1C0099481E00900029F5DC08E053
:101CC000029802995A460078491C02911799904748
:101CD0006D1CBAF10001AAF1010AF1DC65E1000016
:101CE00009280100303132333435363738396162F2
:101CF00063646566000000003031323334353637B6
:101D000038394142434445460000000000F058F98C
:101D10000544761C307800287FF4ECAD19B02846D5
:101D2000BDE8F08F620700D4062709F1070222F010
:101D3000070CFCE80223E14603F000485FEA080CC8
:101D400002D00FF2702C0DE05FEA045C02D50FF2B6
:101D5000682C07E05FEAC47C02D00FF2602C01E03F
:101D6000AFF2700C4FF0FF3823F00043CDF850C0B5
:101D700065280CD006DC452809D046281DD0472808
:101D80003DD13DE0662818D067287ED138E000219B
:101D9000112F01DB112000E0781CCDE9000106A91C
:101DA0000EA8FFF7DDFCDDE90F010E9A039100217B
:101DB000009207F1010A04914DE04FF000400097B6
:101DC000CDE9011006A90EA8FFF7CAFCDDE90F0254
:101DD00003920E9B11990022DDF80CA0009304924F
:101DE00011B9791C00EB010AB7EB0A0004D4C0F169
:101DF000FF3007F1010A0490AAEB0700019044E0CC
:101E0000012F00DA01270021112F01DD112000E050
:101E10003846CDE9000106A90EA8FFF7A1FCDDE9CF
:101E20000F010E9A0391002104910092BA462107F6
:101E30000CD40399514500DA8A46BAF1010F05DD49
:101E4000009AAAF10101515C302908D0B84202DAA7
:101E500010F1040F06DA0121CDE9011015E0AAF115
:101E60000101E9E7002805DC049901440491AAEB8B
:101E7000000102E0411C514500DD8A460499401AE8
:101E8000401C01904FF000400290200704D40198BC
:101E9000504501DBCDF8048000208DF84F000298FA
:101EA0000DF14F07B0F1004F25D02B200E90029876
:101EB0004FF0020800280CDA404202902D200E90CC
:101EC00007E00A210298FEF737FA3031029007F84E
:101ED000011DB8F10001A8F10108F2DC0298002808
:101EE000EFD1791E0E980870307800F0200040F095
:101EF000450007F8020D12A8C01B00F1070814984E
:101F0000007800B1012000EB0A01019801EBE071BB
:101F100005984144401A401E0590E00306D45B46F4
:101F20002146179A059800F05DF80544149800784A
:101F300018B15A46179990476D1CE00324D55B46AB
:101F40002146179A059800F04DF805441CE00498C6
:101F5000002807DBDDE90301884203DD0098405CCF
:101F6000179901E0179930205A469047049805F1D7
:101F70000105401C04900198401E019004D12E20C0
:101F80005A46179990476D1CBAF10001AAF1010A4F
:101F9000DDDC05E017F8010B5A46179990476D1CD8
:101FA000B8F10001A8F10108F4DC5B462146179A5C
:101FB0000598ABE62D0000002B000000200000007B
:101FC0002DE9F041044600251E461746880404D436
:101FD00005E039462020B0476D1C641EF9D528461F
:101FE000BDE8F0812DE9F041044600251E469046EB
:101FF000C80301D5302700E02027880404D505E078
:1020000041463846B0476D1C641EF9D52846BDE8E8
:10201000F0814FF0E021096921F004014FF0E02246
:102020001161C0EBC00101EB4101491E516100216A
:1020300091611146096921F0020111611146096996
:1020400041F00101116100BF4FF0E021096901F485
:1020500080310029F8D04FF0E021096921F0010119
:102060004FF0E0221161704700B502460B46D0B236
:10207000FFF76CFA104600BD8AB01422304905A85B
:10208000FEF79EF814216846FEF7B3F800250026F7
:10209000052002462B4B19684FF6FF0319402A4BC7
:1020A0000B4343EA0221274B196000BFFEF752FDA4
:1020B000FEF742FCFEF786FCFEF7EEFC4FF4E13043
:1020C000FFF7B0F9FFF748F90120FFF775F8FEF7C1
:1020D00099FDFEF72DFCFFF747FA1CA0FFF720FB48
:1020E0001DA0FFF71DFB41F20200FFF7A1FA1DA0A2
:1020F000FFF716FB6A46142141F20200FFF76CFA63
:10210000002405E01DF8041019A0FFF709FB641C6A
:10211000142CF7D312E0FEF7E7FC0646032E0BD192
:102120000E210020FEF794FDC5B2C5EB0510124A42
:10213000811812A0FFF7F4FAFEF74AFDEBE7000062
:10214000842100080CED00E00000FA05526573657B
:10215000742121210D0A0000BFAACABCB2C1B3FD7F
:102160000D0A0000B2C1B3FDBDE1CAF80D0A0000BE
:1021700030782578202000000000002025730D0A0B
:102180000000000068656C6C6F2C776F726C6421C6
:102190000000000000000000B8210008000000203E
:1021A0003001000006080008142200083001002059
:1021B000100500005017000897BAE9D7E6C7BF9F7F
:1021C000CDF5B8EAC1D60F95BAE9BFB5B5B9F9C72B
:1021D000ECB5B3C2BBD49FB2CCBDA1C6BD1E9DB5EC
:1021E000C2E8B00FB3EABB97C1D6CAF7B2A89FC284
:1021F000BDC4ABC0F21E95B3FEC3F7B5D1EEE8A1E6
:1022000097CDF5B1F3B1F39FB5CBCAD8D5FD1E0379
:042210005ABEA7000B
:040000050800018965
:00000001FF
